{
	"contracts/TheBlockChainMessenger.sol": {
		"TheBlockChainMessenger": {
			"abi": [
				{
					"inputs": [],
					"stateMutability": "nonpayable",
					"type": "constructor"
				},
				{
					"inputs": [],
					"name": "changeCounter",
					"outputs": [
						{
							"internalType": "uint256",
							"name": "",
							"type": "uint256"
						}
					],
					"stateMutability": "view",
					"type": "function"
				},
				{
					"inputs": [],
					"name": "myString",
					"outputs": [
						{
							"internalType": "string",
							"name": "",
							"type": "string"
						}
					],
					"stateMutability": "view",
					"type": "function"
				},
				{
					"inputs": [],
					"name": "owner",
					"outputs": [
						{
							"internalType": "address",
							"name": "",
							"type": "address"
						}
					],
					"stateMutability": "view",
					"type": "function"
				},
				{
					"inputs": [
						{
							"internalType": "string",
							"name": "_newString",
							"type": "string"
						}
					],
					"name": "updateMyString",
					"outputs": [],
					"stateMutability": "nonpayable",
					"type": "function"
				}
			],
			"devdoc": {
				"kind": "dev",
				"methods": {},
				"version": 1
			},
			"evm": {
				"assembly": "    /* \"contracts/TheBlockChainMessenger.sol\":65:418  contract TheBlockChainMessenger {... */\n  mstore(0x40, 0x80)\n    /* \"contracts/TheBlockChainMessenger.sol\":191:239  constructor(){... */\n  callvalue\n  dup1\n  iszero\n  tag_1\n  jumpi\n  0x00\n  dup1\n  revert\ntag_1:\n  pop\n    /* \"contracts/TheBlockChainMessenger.sol\":222:232  msg.sender */\n  caller\n    /* \"contracts/TheBlockChainMessenger.sol\":214:219  owner */\n  0x01\n  0x00\n    /* \"contracts/TheBlockChainMessenger.sol\":214:232  owner = msg.sender */\n  0x0100\n  exp\n  dup2\n  sload\n  dup2\n  0xffffffffffffffffffffffffffffffffffffffff\n  mul\n  not\n  and\n  swap1\n  dup4\n  0xffffffffffffffffffffffffffffffffffffffff\n  and\n  mul\n  or\n  swap1\n  sstore\n  pop\n    /* \"contracts/TheBlockChainMessenger.sol\":65:418  contract TheBlockChainMessenger {... */\n  dataSize(sub_0)\n  dup1\n  dataOffset(sub_0)\n  0x00\n  codecopy\n  0x00\n  return\nstop\n\nsub_0: assembly {\n        /* \"contracts/TheBlockChainMessenger.sol\":65:418  contract TheBlockChainMessenger {... */\n      mstore(0x40, 0x80)\n      callvalue\n      dup1\n      iszero\n      tag_1\n      jumpi\n      0x00\n      dup1\n      revert\n    tag_1:\n      pop\n      jumpi(tag_2, lt(calldatasize, 0x04))\n      shr(0xe0, calldataload(0x00))\n      dup1\n      0x1d51057c\n      eq\n      tag_3\n      jumpi\n      dup1\n      0x492bfa18\n      eq\n      tag_4\n      jumpi\n      dup1\n      0x8da5cb5b\n      eq\n      tag_5\n      jumpi\n      dup1\n      0xaaf4389a\n      eq\n      tag_6\n      jumpi\n    tag_2:\n      0x00\n      dup1\n      revert\n        /* \"contracts/TheBlockChainMessenger.sol\":245:416  function updateMyString(string memory _newString) public {... */\n    tag_3:\n      tag_7\n      0x04\n      dup1\n      calldatasize\n      sub\n      dup2\n      add\n      swap1\n      tag_8\n      swap2\n      swap1\n      tag_9\n      jump\t// in\n    tag_8:\n      tag_10\n      jump\t// in\n    tag_7:\n      stop\n        /* \"contracts/TheBlockChainMessenger.sol\":162:184  string public myString */\n    tag_4:\n      tag_11\n      tag_12\n      jump\t// in\n    tag_11:\n      mload(0x40)\n      tag_13\n      swap2\n      swap1\n      tag_14\n      jump\t// in\n    tag_13:\n      mload(0x40)\n      dup1\n      swap2\n      sub\n      swap1\n      return\n        /* \"contracts/TheBlockChainMessenger.sol\":135:155  address public owner */\n    tag_5:\n      tag_15\n      tag_16\n      jump\t// in\n    tag_15:\n      mload(0x40)\n      tag_17\n      swap2\n      swap1\n      tag_18\n      jump\t// in\n    tag_17:\n      mload(0x40)\n      dup1\n      swap2\n      sub\n      swap1\n      return\n        /* \"contracts/TheBlockChainMessenger.sol\":103:128  uint public changeCounter */\n    tag_6:\n      tag_19\n      tag_20\n      jump\t// in\n    tag_19:\n      mload(0x40)\n      tag_21\n      swap2\n      swap1\n      tag_22\n      jump\t// in\n    tag_21:\n      mload(0x40)\n      dup1\n      swap2\n      sub\n      swap1\n      return\n        /* \"contracts/TheBlockChainMessenger.sol\":245:416  function updateMyString(string memory _newString) public {... */\n    tag_10:\n        /* \"contracts/TheBlockChainMessenger.sol\":329:334  owner */\n      0x01\n      0x00\n      swap1\n      sload\n      swap1\n      0x0100\n      exp\n      swap1\n      div\n      0xffffffffffffffffffffffffffffffffffffffff\n      and\n        /* \"contracts/TheBlockChainMessenger.sol\":315:334  msg.sender == owner */\n      0xffffffffffffffffffffffffffffffffffffffff\n      and\n        /* \"contracts/TheBlockChainMessenger.sol\":315:325  msg.sender */\n      caller\n        /* \"contracts/TheBlockChainMessenger.sol\":315:334  msg.sender == owner */\n      0xffffffffffffffffffffffffffffffffffffffff\n      and\n      sub\n        /* \"contracts/TheBlockChainMessenger.sol\":312:410  if(msg.sender == owner){... */\n      tag_24\n      jumpi\n        /* \"contracts/TheBlockChainMessenger.sol\":349:362  changeCounter */\n      0x00\n      dup1\n        /* \"contracts/TheBlockChainMessenger.sol\":349:364  changeCounter++ */\n      dup2\n      sload\n      dup1\n      swap3\n      swap2\n      swap1\n      tag_25\n      swap1\n      tag_26\n      jump\t// in\n    tag_25:\n      swap2\n      swap1\n      pop\n      sstore\n      pop\n        /* \"contracts/TheBlockChainMessenger.sol\":389:399  _newString */\n      dup1\n        /* \"contracts/TheBlockChainMessenger.sol\":378:386  myString */\n      0x02\n        /* \"contracts/TheBlockChainMessenger.sol\":378:399  myString = _newString */\n      swap1\n      dup2\n      tag_27\n      swap2\n      swap1\n      tag_28\n      jump\t// in\n    tag_27:\n      pop\n        /* \"contracts/TheBlockChainMessenger.sol\":312:410  if(msg.sender == owner){... */\n    tag_24:\n        /* \"contracts/TheBlockChainMessenger.sol\":245:416  function updateMyString(string memory _newString) public {... */\n      pop\n      jump\t// out\n        /* \"contracts/TheBlockChainMessenger.sol\":162:184  string public myString */\n    tag_12:\n      0x02\n      dup1\n      sload\n      tag_29\n      swap1\n      tag_30\n      jump\t// in\n    tag_29:\n      dup1\n      0x1f\n      add\n      0x20\n      dup1\n      swap2\n      div\n      mul\n      0x20\n      add\n      mload(0x40)\n      swap1\n      dup2\n      add\n      0x40\n      mstore\n      dup1\n      swap3\n      swap2\n      swap1\n      dup2\n      dup2\n      mstore\n      0x20\n      add\n      dup3\n      dup1\n      sload\n      tag_31\n      swap1\n      tag_30\n      jump\t// in\n    tag_31:\n      dup1\n      iszero\n      tag_32\n      jumpi\n      dup1\n      0x1f\n      lt\n      tag_33\n      jumpi\n      0x0100\n      dup1\n      dup4\n      sload\n      div\n      mul\n      dup4\n      mstore\n      swap2\n      0x20\n      add\n      swap2\n      jump(tag_32)\n    tag_33:\n      dup3\n      add\n      swap2\n      swap1\n      0x00\n      mstore\n      keccak256(0x00, 0x20)\n      swap1\n    tag_34:\n      dup2\n      sload\n      dup2\n      mstore\n      swap1\n      0x01\n      add\n      swap1\n      0x20\n      add\n      dup1\n      dup4\n      gt\n      tag_34\n      jumpi\n      dup3\n      swap1\n      sub\n      0x1f\n      and\n      dup3\n      add\n      swap2\n    tag_32:\n      pop\n      pop\n      pop\n      pop\n      pop\n      dup2\n      jump\t// out\n        /* \"contracts/TheBlockChainMessenger.sol\":135:155  address public owner */\n    tag_16:\n      0x01\n      0x00\n      swap1\n      sload\n      swap1\n      0x0100\n      exp\n      swap1\n      div\n      0xffffffffffffffffffffffffffffffffffffffff\n      and\n      dup2\n      jump\t// out\n        /* \"contracts/TheBlockChainMessenger.sol\":103:128  uint public changeCounter */\n    tag_20:\n      sload(0x00)\n      dup2\n      jump\t// out\n        /* \"#utility.yul\":7:82   */\n    tag_35:\n        /* \"#utility.yul\":40:46   */\n      0x00\n        /* \"#utility.yul\":73:75   */\n      0x40\n        /* \"#utility.yul\":67:76   */\n      mload\n        /* \"#utility.yul\":57:76   */\n      swap1\n      pop\n        /* \"#utility.yul\":7:82   */\n      swap1\n      jump\t// out\n        /* \"#utility.yul\":88:205   */\n    tag_36:\n        /* \"#utility.yul\":197:198   */\n      0x00\n        /* \"#utility.yul\":194:195   */\n      dup1\n        /* \"#utility.yul\":187:199   */\n      revert\n        /* \"#utility.yul\":211:328   */\n    tag_37:\n        /* \"#utility.yul\":320:321   */\n      0x00\n        /* \"#utility.yul\":317:318   */\n      dup1\n        /* \"#utility.yul\":310:322   */\n      revert\n        /* \"#utility.yul\":334:451   */\n    tag_38:\n        /* \"#utility.yul\":443:444   */\n      0x00\n        /* \"#utility.yul\":440:441   */\n      dup1\n        /* \"#utility.yul\":433:445   */\n      revert\n        /* \"#utility.yul\":457:574   */\n    tag_39:\n        /* \"#utility.yul\":566:567   */\n      0x00\n        /* \"#utility.yul\":563:564   */\n      dup1\n        /* \"#utility.yul\":556:568   */\n      revert\n        /* \"#utility.yul\":580:682   */\n    tag_40:\n        /* \"#utility.yul\":621:627   */\n      0x00\n        /* \"#utility.yul\":672:674   */\n      0x1f\n        /* \"#utility.yul\":668:675   */\n      not\n        /* \"#utility.yul\":663:665   */\n      0x1f\n        /* \"#utility.yul\":656:661   */\n      dup4\n        /* \"#utility.yul\":652:666   */\n      add\n        /* \"#utility.yul\":648:676   */\n      and\n        /* \"#utility.yul\":638:676   */\n      swap1\n      pop\n        /* \"#utility.yul\":580:682   */\n      swap2\n      swap1\n      pop\n      jump\t// out\n        /* \"#utility.yul\":688:868   */\n    tag_41:\n        /* \"#utility.yul\":736:813   */\n      0x4e487b7100000000000000000000000000000000000000000000000000000000\n        /* \"#utility.yul\":733:734   */\n      0x00\n        /* \"#utility.yul\":726:814   */\n      mstore\n        /* \"#utility.yul\":833:837   */\n      0x41\n        /* \"#utility.yul\":830:831   */\n      0x04\n        /* \"#utility.yul\":823:838   */\n      mstore\n        /* \"#utility.yul\":857:861   */\n      0x24\n        /* \"#utility.yul\":854:855   */\n      0x00\n        /* \"#utility.yul\":847:862   */\n      revert\n        /* \"#utility.yul\":874:1155   */\n    tag_42:\n        /* \"#utility.yul\":957:984   */\n      tag_83\n        /* \"#utility.yul\":979:983   */\n      dup3\n        /* \"#utility.yul\":957:984   */\n      tag_40\n      jump\t// in\n    tag_83:\n        /* \"#utility.yul\":949:955   */\n      dup2\n        /* \"#utility.yul\":945:985   */\n      add\n        /* \"#utility.yul\":1087:1093   */\n      dup2\n        /* \"#utility.yul\":1075:1085   */\n      dup2\n        /* \"#utility.yul\":1072:1094   */\n      lt\n        /* \"#utility.yul\":1051:1069   */\n      0xffffffffffffffff\n        /* \"#utility.yul\":1039:1049   */\n      dup3\n        /* \"#utility.yul\":1036:1070   */\n      gt\n        /* \"#utility.yul\":1033:1095   */\n      or\n        /* \"#utility.yul\":1030:1118   */\n      iszero\n      tag_84\n      jumpi\n        /* \"#utility.yul\":1098:1116   */\n      tag_85\n      tag_41\n      jump\t// in\n    tag_85:\n        /* \"#utility.yul\":1030:1118   */\n    tag_84:\n        /* \"#utility.yul\":1138:1148   */\n      dup1\n        /* \"#utility.yul\":1134:1136   */\n      0x40\n        /* \"#utility.yul\":1127:1149   */\n      mstore\n        /* \"#utility.yul\":917:1155   */\n      pop\n        /* \"#utility.yul\":874:1155   */\n      pop\n      pop\n      jump\t// out\n        /* \"#utility.yul\":1161:1290   */\n    tag_43:\n        /* \"#utility.yul\":1195:1201   */\n      0x00\n        /* \"#utility.yul\":1222:1242   */\n      tag_87\n      tag_35\n      jump\t// in\n    tag_87:\n        /* \"#utility.yul\":1212:1242   */\n      swap1\n      pop\n        /* \"#utility.yul\":1251:1284   */\n      tag_88\n        /* \"#utility.yul\":1279:1283   */\n      dup3\n        /* \"#utility.yul\":1271:1277   */\n      dup3\n        /* \"#utility.yul\":1251:1284   */\n      tag_42\n      jump\t// in\n    tag_88:\n        /* \"#utility.yul\":1161:1290   */\n      swap2\n      swap1\n      pop\n      jump\t// out\n        /* \"#utility.yul\":1296:1604   */\n    tag_44:\n        /* \"#utility.yul\":1358:1362   */\n      0x00\n        /* \"#utility.yul\":1448:1466   */\n      0xffffffffffffffff\n        /* \"#utility.yul\":1440:1446   */\n      dup3\n        /* \"#utility.yul\":1437:1467   */\n      gt\n        /* \"#utility.yul\":1434:1490   */\n      iszero\n      tag_90\n      jumpi\n        /* \"#utility.yul\":1470:1488   */\n      tag_91\n      tag_41\n      jump\t// in\n    tag_91:\n        /* \"#utility.yul\":1434:1490   */\n    tag_90:\n        /* \"#utility.yul\":1508:1537   */\n      tag_92\n        /* \"#utility.yul\":1530:1536   */\n      dup3\n        /* \"#utility.yul\":1508:1537   */\n      tag_40\n      jump\t// in\n    tag_92:\n        /* \"#utility.yul\":1500:1537   */\n      swap1\n      pop\n        /* \"#utility.yul\":1592:1596   */\n      0x20\n        /* \"#utility.yul\":1586:1590   */\n      dup2\n        /* \"#utility.yul\":1582:1597   */\n      add\n        /* \"#utility.yul\":1574:1597   */\n      swap1\n      pop\n        /* \"#utility.yul\":1296:1604   */\n      swap2\n      swap1\n      pop\n      jump\t// out\n        /* \"#utility.yul\":1610:1764   */\n    tag_45:\n        /* \"#utility.yul\":1694:1700   */\n      dup3\n        /* \"#utility.yul\":1689:1692   */\n      dup2\n        /* \"#utility.yul\":1684:1687   */\n      dup4\n        /* \"#utility.yul\":1671:1701   */\n      calldatacopy\n        /* \"#utility.yul\":1756:1757   */\n      0x00\n        /* \"#utility.yul\":1747:1753   */\n      dup4\n        /* \"#utility.yul\":1742:1745   */\n      dup4\n        /* \"#utility.yul\":1738:1754   */\n      add\n        /* \"#utility.yul\":1731:1758   */\n      mstore\n        /* \"#utility.yul\":1610:1764   */\n      pop\n      pop\n      pop\n      jump\t// out\n        /* \"#utility.yul\":1770:2182   */\n    tag_46:\n        /* \"#utility.yul\":1848:1853   */\n      0x00\n        /* \"#utility.yul\":1873:1939   */\n      tag_95\n        /* \"#utility.yul\":1889:1938   */\n      tag_96\n        /* \"#utility.yul\":1931:1937   */\n      dup5\n        /* \"#utility.yul\":1889:1938   */\n      tag_44\n      jump\t// in\n    tag_96:\n        /* \"#utility.yul\":1873:1939   */\n      tag_43\n      jump\t// in\n    tag_95:\n        /* \"#utility.yul\":1864:1939   */\n      swap1\n      pop\n        /* \"#utility.yul\":1962:1968   */\n      dup3\n        /* \"#utility.yul\":1955:1960   */\n      dup2\n        /* \"#utility.yul\":1948:1969   */\n      mstore\n        /* \"#utility.yul\":2000:2004   */\n      0x20\n        /* \"#utility.yul\":1993:1998   */\n      dup2\n        /* \"#utility.yul\":1989:2005   */\n      add\n        /* \"#utility.yul\":2038:2041   */\n      dup5\n        /* \"#utility.yul\":2029:2035   */\n      dup5\n        /* \"#utility.yul\":2024:2027   */\n      dup5\n        /* \"#utility.yul\":2020:2036   */\n      add\n        /* \"#utility.yul\":2017:2042   */\n      gt\n        /* \"#utility.yul\":2014:2126   */\n      iszero\n      tag_97\n      jumpi\n        /* \"#utility.yul\":2045:2124   */\n      tag_98\n      tag_39\n      jump\t// in\n    tag_98:\n        /* \"#utility.yul\":2014:2126   */\n    tag_97:\n        /* \"#utility.yul\":2135:2176   */\n      tag_99\n        /* \"#utility.yul\":2169:2175   */\n      dup5\n        /* \"#utility.yul\":2164:2167   */\n      dup3\n        /* \"#utility.yul\":2159:2162   */\n      dup6\n        /* \"#utility.yul\":2135:2176   */\n      tag_45\n      jump\t// in\n    tag_99:\n        /* \"#utility.yul\":1854:2182   */\n      pop\n        /* \"#utility.yul\":1770:2182   */\n      swap4\n      swap3\n      pop\n      pop\n      pop\n      jump\t// out\n        /* \"#utility.yul\":2202:2542   */\n    tag_47:\n        /* \"#utility.yul\":2258:2263   */\n      0x00\n        /* \"#utility.yul\":2307:2310   */\n      dup3\n        /* \"#utility.yul\":2300:2304   */\n      0x1f\n        /* \"#utility.yul\":2292:2298   */\n      dup4\n        /* \"#utility.yul\":2288:2305   */\n      add\n        /* \"#utility.yul\":2284:2311   */\n      slt\n        /* \"#utility.yul\":2274:2396   */\n      tag_101\n      jumpi\n        /* \"#utility.yul\":2315:2394   */\n      tag_102\n      tag_38\n      jump\t// in\n    tag_102:\n        /* \"#utility.yul\":2274:2396   */\n    tag_101:\n        /* \"#utility.yul\":2432:2438   */\n      dup2\n        /* \"#utility.yul\":2419:2439   */\n      calldataload\n        /* \"#utility.yul\":2457:2536   */\n      tag_103\n        /* \"#utility.yul\":2532:2535   */\n      dup5\n        /* \"#utility.yul\":2524:2530   */\n      dup3\n        /* \"#utility.yul\":2517:2521   */\n      0x20\n        /* \"#utility.yul\":2509:2515   */\n      dup7\n        /* \"#utility.yul\":2505:2522   */\n      add\n        /* \"#utility.yul\":2457:2536   */\n      tag_46\n      jump\t// in\n    tag_103:\n        /* \"#utility.yul\":2448:2536   */\n      swap2\n      pop\n        /* \"#utility.yul\":2264:2542   */\n      pop\n        /* \"#utility.yul\":2202:2542   */\n      swap3\n      swap2\n      pop\n      pop\n      jump\t// out\n        /* \"#utility.yul\":2548:3057   */\n    tag_9:\n        /* \"#utility.yul\":2617:2623   */\n      0x00\n        /* \"#utility.yul\":2666:2668   */\n      0x20\n        /* \"#utility.yul\":2654:2663   */\n      dup3\n        /* \"#utility.yul\":2645:2652   */\n      dup5\n        /* \"#utility.yul\":2641:2664   */\n      sub\n        /* \"#utility.yul\":2637:2669   */\n      slt\n        /* \"#utility.yul\":2634:2753   */\n      iszero\n      tag_105\n      jumpi\n        /* \"#utility.yul\":2672:2751   */\n      tag_106\n      tag_36\n      jump\t// in\n    tag_106:\n        /* \"#utility.yul\":2634:2753   */\n    tag_105:\n        /* \"#utility.yul\":2820:2821   */\n      0x00\n        /* \"#utility.yul\":2809:2818   */\n      dup3\n        /* \"#utility.yul\":2805:2822   */\n      add\n        /* \"#utility.yul\":2792:2823   */\n      calldataload\n        /* \"#utility.yul\":2850:2868   */\n      0xffffffffffffffff\n        /* \"#utility.yul\":2842:2848   */\n      dup2\n        /* \"#utility.yul\":2839:2869   */\n      gt\n        /* \"#utility.yul\":2836:2953   */\n      iszero\n      tag_107\n      jumpi\n        /* \"#utility.yul\":2872:2951   */\n      tag_108\n      tag_37\n      jump\t// in\n    tag_108:\n        /* \"#utility.yul\":2836:2953   */\n    tag_107:\n        /* \"#utility.yul\":2977:3040   */\n      tag_109\n        /* \"#utility.yul\":3032:3039   */\n      dup5\n        /* \"#utility.yul\":3023:3029   */\n      dup3\n        /* \"#utility.yul\":3012:3021   */\n      dup6\n        /* \"#utility.yul\":3008:3030   */\n      add\n        /* \"#utility.yul\":2977:3040   */\n      tag_47\n      jump\t// in\n    tag_109:\n        /* \"#utility.yul\":2967:3040   */\n      swap2\n      pop\n        /* \"#utility.yul\":2763:3050   */\n      pop\n        /* \"#utility.yul\":2548:3057   */\n      swap3\n      swap2\n      pop\n      pop\n      jump\t// out\n        /* \"#utility.yul\":3063:3162   */\n    tag_48:\n        /* \"#utility.yul\":3115:3121   */\n      0x00\n        /* \"#utility.yul\":3149:3154   */\n      dup2\n        /* \"#utility.yul\":3143:3155   */\n      mload\n        /* \"#utility.yul\":3133:3155   */\n      swap1\n      pop\n        /* \"#utility.yul\":3063:3162   */\n      swap2\n      swap1\n      pop\n      jump\t// out\n        /* \"#utility.yul\":3168:3337   */\n    tag_49:\n        /* \"#utility.yul\":3252:3263   */\n      0x00\n        /* \"#utility.yul\":3286:3292   */\n      dup3\n        /* \"#utility.yul\":3281:3284   */\n      dup3\n        /* \"#utility.yul\":3274:3293   */\n      mstore\n        /* \"#utility.yul\":3326:3330   */\n      0x20\n        /* \"#utility.yul\":3321:3324   */\n      dup3\n        /* \"#utility.yul\":3317:3331   */\n      add\n        /* \"#utility.yul\":3302:3331   */\n      swap1\n      pop\n        /* \"#utility.yul\":3168:3337   */\n      swap3\n      swap2\n      pop\n      pop\n      jump\t// out\n        /* \"#utility.yul\":3343:3650   */\n    tag_50:\n        /* \"#utility.yul\":3411:3412   */\n      0x00\n        /* \"#utility.yul\":3421:3534   */\n    tag_113:\n        /* \"#utility.yul\":3435:3441   */\n      dup4\n        /* \"#utility.yul\":3432:3433   */\n      dup2\n        /* \"#utility.yul\":3429:3442   */\n      lt\n        /* \"#utility.yul\":3421:3534   */\n      iszero\n      tag_115\n      jumpi\n        /* \"#utility.yul\":3520:3521   */\n      dup1\n        /* \"#utility.yul\":3515:3518   */\n      dup3\n        /* \"#utility.yul\":3511:3522   */\n      add\n        /* \"#utility.yul\":3505:3523   */\n      mload\n        /* \"#utility.yul\":3501:3502   */\n      dup2\n        /* \"#utility.yul\":3496:3499   */\n      dup5\n        /* \"#utility.yul\":3492:3503   */\n      add\n        /* \"#utility.yul\":3485:3524   */\n      mstore\n        /* \"#utility.yul\":3457:3459   */\n      0x20\n        /* \"#utility.yul\":3454:3455   */\n      dup2\n        /* \"#utility.yul\":3450:3460   */\n      add\n        /* \"#utility.yul\":3445:3460   */\n      swap1\n      pop\n        /* \"#utility.yul\":3421:3534   */\n      jump(tag_113)\n    tag_115:\n        /* \"#utility.yul\":3552:3558   */\n      dup4\n        /* \"#utility.yul\":3549:3550   */\n      dup2\n        /* \"#utility.yul\":3546:3559   */\n      gt\n        /* \"#utility.yul\":3543:3644   */\n      iszero\n      tag_116\n      jumpi\n        /* \"#utility.yul\":3632:3633   */\n      0x00\n        /* \"#utility.yul\":3623:3629   */\n      dup5\n        /* \"#utility.yul\":3618:3621   */\n      dup5\n        /* \"#utility.yul\":3614:3630   */\n      add\n        /* \"#utility.yul\":3607:3634   */\n      mstore\n        /* \"#utility.yul\":3543:3644   */\n    tag_116:\n        /* \"#utility.yul\":3392:3650   */\n      pop\n        /* \"#utility.yul\":3343:3650   */\n      pop\n      pop\n      pop\n      jump\t// out\n        /* \"#utility.yul\":3656:4020   */\n    tag_51:\n        /* \"#utility.yul\":3744:3747   */\n      0x00\n        /* \"#utility.yul\":3772:3811   */\n      tag_118\n        /* \"#utility.yul\":3805:3810   */\n      dup3\n        /* \"#utility.yul\":3772:3811   */\n      tag_48\n      jump\t// in\n    tag_118:\n        /* \"#utility.yul\":3827:3898   */\n      tag_119\n        /* \"#utility.yul\":3891:3897   */\n      dup2\n        /* \"#utility.yul\":3886:3889   */\n      dup6\n        /* \"#utility.yul\":3827:3898   */\n      tag_49\n      jump\t// in\n    tag_119:\n        /* \"#utility.yul\":3820:3898   */\n      swap4\n      pop\n        /* \"#utility.yul\":3907:3959   */\n      tag_120\n        /* \"#utility.yul\":3952:3958   */\n      dup2\n        /* \"#utility.yul\":3947:3950   */\n      dup6\n        /* \"#utility.yul\":3940:3944   */\n      0x20\n        /* \"#utility.yul\":3933:3938   */\n      dup7\n        /* \"#utility.yul\":3929:3945   */\n      add\n        /* \"#utility.yul\":3907:3959   */\n      tag_50\n      jump\t// in\n    tag_120:\n        /* \"#utility.yul\":3984:4013   */\n      tag_121\n        /* \"#utility.yul\":4006:4012   */\n      dup2\n        /* \"#utility.yul\":3984:4013   */\n      tag_40\n      jump\t// in\n    tag_121:\n        /* \"#utility.yul\":3979:3982   */\n      dup5\n        /* \"#utility.yul\":3975:4014   */\n      add\n        /* \"#utility.yul\":3968:4014   */\n      swap2\n      pop\n        /* \"#utility.yul\":3748:4020   */\n      pop\n        /* \"#utility.yul\":3656:4020   */\n      swap3\n      swap2\n      pop\n      pop\n      jump\t// out\n        /* \"#utility.yul\":4026:4339   */\n    tag_14:\n        /* \"#utility.yul\":4139:4143   */\n      0x00\n        /* \"#utility.yul\":4177:4179   */\n      0x20\n        /* \"#utility.yul\":4166:4175   */\n      dup3\n        /* \"#utility.yul\":4162:4180   */\n      add\n        /* \"#utility.yul\":4154:4180   */\n      swap1\n      pop\n        /* \"#utility.yul\":4226:4235   */\n      dup2\n        /* \"#utility.yul\":4220:4224   */\n      dup2\n        /* \"#utility.yul\":4216:4236   */\n      sub\n        /* \"#utility.yul\":4212:4213   */\n      0x00\n        /* \"#utility.yul\":4201:4210   */\n      dup4\n        /* \"#utility.yul\":4197:4214   */\n      add\n        /* \"#utility.yul\":4190:4237   */\n      mstore\n        /* \"#utility.yul\":4254:4332   */\n      tag_123\n        /* \"#utility.yul\":4327:4331   */\n      dup2\n        /* \"#utility.yul\":4318:4324   */\n      dup5\n        /* \"#utility.yul\":4254:4332   */\n      tag_51\n      jump\t// in\n    tag_123:\n        /* \"#utility.yul\":4246:4332   */\n      swap1\n      pop\n        /* \"#utility.yul\":4026:4339   */\n      swap3\n      swap2\n      pop\n      pop\n      jump\t// out\n        /* \"#utility.yul\":4345:4471   */\n    tag_52:\n        /* \"#utility.yul\":4382:4389   */\n      0x00\n        /* \"#utility.yul\":4422:4464   */\n      0xffffffffffffffffffffffffffffffffffffffff\n        /* \"#utility.yul\":4415:4420   */\n      dup3\n        /* \"#utility.yul\":4411:4465   */\n      and\n        /* \"#utility.yul\":4400:4465   */\n      swap1\n      pop\n        /* \"#utility.yul\":4345:4471   */\n      swap2\n      swap1\n      pop\n      jump\t// out\n        /* \"#utility.yul\":4477:4573   */\n    tag_53:\n        /* \"#utility.yul\":4514:4521   */\n      0x00\n        /* \"#utility.yul\":4543:4567   */\n      tag_126\n        /* \"#utility.yul\":4561:4566   */\n      dup3\n        /* \"#utility.yul\":4543:4567   */\n      tag_52\n      jump\t// in\n    tag_126:\n        /* \"#utility.yul\":4532:4567   */\n      swap1\n      pop\n        /* \"#utility.yul\":4477:4573   */\n      swap2\n      swap1\n      pop\n      jump\t// out\n        /* \"#utility.yul\":4579:4697   */\n    tag_54:\n        /* \"#utility.yul\":4666:4690   */\n      tag_128\n        /* \"#utility.yul\":4684:4689   */\n      dup2\n        /* \"#utility.yul\":4666:4690   */\n      tag_53\n      jump\t// in\n    tag_128:\n        /* \"#utility.yul\":4661:4664   */\n      dup3\n        /* \"#utility.yul\":4654:4691   */\n      mstore\n        /* \"#utility.yul\":4579:4697   */\n      pop\n      pop\n      jump\t// out\n        /* \"#utility.yul\":4703:4925   */\n    tag_18:\n        /* \"#utility.yul\":4796:4800   */\n      0x00\n        /* \"#utility.yul\":4834:4836   */\n      0x20\n        /* \"#utility.yul\":4823:4832   */\n      dup3\n        /* \"#utility.yul\":4819:4837   */\n      add\n        /* \"#utility.yul\":4811:4837   */\n      swap1\n      pop\n        /* \"#utility.yul\":4847:4918   */\n      tag_130\n        /* \"#utility.yul\":4915:4916   */\n      0x00\n        /* \"#utility.yul\":4904:4913   */\n      dup4\n        /* \"#utility.yul\":4900:4917   */\n      add\n        /* \"#utility.yul\":4891:4897   */\n      dup5\n        /* \"#utility.yul\":4847:4918   */\n      tag_54\n      jump\t// in\n    tag_130:\n        /* \"#utility.yul\":4703:4925   */\n      swap3\n      swap2\n      pop\n      pop\n      jump\t// out\n        /* \"#utility.yul\":4931:5008   */\n    tag_55:\n        /* \"#utility.yul\":4968:4975   */\n      0x00\n        /* \"#utility.yul\":4997:5002   */\n      dup2\n        /* \"#utility.yul\":4986:5002   */\n      swap1\n      pop\n        /* \"#utility.yul\":4931:5008   */\n      swap2\n      swap1\n      pop\n      jump\t// out\n        /* \"#utility.yul\":5014:5132   */\n    tag_56:\n        /* \"#utility.yul\":5101:5125   */\n      tag_133\n        /* \"#utility.yul\":5119:5124   */\n      dup2\n        /* \"#utility.yul\":5101:5125   */\n      tag_55\n      jump\t// in\n    tag_133:\n        /* \"#utility.yul\":5096:5099   */\n      dup3\n        /* \"#utility.yul\":5089:5126   */\n      mstore\n        /* \"#utility.yul\":5014:5132   */\n      pop\n      pop\n      jump\t// out\n        /* \"#utility.yul\":5138:5360   */\n    tag_22:\n        /* \"#utility.yul\":5231:5235   */\n      0x00\n        /* \"#utility.yul\":5269:5271   */\n      0x20\n        /* \"#utility.yul\":5258:5267   */\n      dup3\n        /* \"#utility.yul\":5254:5272   */\n      add\n        /* \"#utility.yul\":5246:5272   */\n      swap1\n      pop\n        /* \"#utility.yul\":5282:5353   */\n      tag_135\n        /* \"#utility.yul\":5350:5351   */\n      0x00\n        /* \"#utility.yul\":5339:5348   */\n      dup4\n        /* \"#utility.yul\":5335:5352   */\n      add\n        /* \"#utility.yul\":5326:5332   */\n      dup5\n        /* \"#utility.yul\":5282:5353   */\n      tag_56\n      jump\t// in\n    tag_135:\n        /* \"#utility.yul\":5138:5360   */\n      swap3\n      swap2\n      pop\n      pop\n      jump\t// out\n        /* \"#utility.yul\":5366:5546   */\n    tag_57:\n        /* \"#utility.yul\":5414:5491   */\n      0x4e487b7100000000000000000000000000000000000000000000000000000000\n        /* \"#utility.yul\":5411:5412   */\n      0x00\n        /* \"#utility.yul\":5404:5492   */\n      mstore\n        /* \"#utility.yul\":5511:5515   */\n      0x11\n        /* \"#utility.yul\":5508:5509   */\n      0x04\n        /* \"#utility.yul\":5501:5516   */\n      mstore\n        /* \"#utility.yul\":5535:5539   */\n      0x24\n        /* \"#utility.yul\":5532:5533   */\n      0x00\n        /* \"#utility.yul\":5525:5540   */\n      revert\n        /* \"#utility.yul\":5552:5785   */\n    tag_26:\n        /* \"#utility.yul\":5591:5594   */\n      0x00\n        /* \"#utility.yul\":5614:5638   */\n      tag_138\n        /* \"#utility.yul\":5632:5637   */\n      dup3\n        /* \"#utility.yul\":5614:5638   */\n      tag_55\n      jump\t// in\n    tag_138:\n        /* \"#utility.yul\":5605:5638   */\n      swap2\n      pop\n        /* \"#utility.yul\":5660:5726   */\n      0xffffffffffffffffffffffffffffffffffffffffffffffffffffffffffffffff\n        /* \"#utility.yul\":5653:5658   */\n      dup3\n        /* \"#utility.yul\":5650:5727   */\n      sub\n        /* \"#utility.yul\":5647:5750   */\n      tag_139\n      jumpi\n        /* \"#utility.yul\":5730:5748   */\n      tag_140\n      tag_57\n      jump\t// in\n    tag_140:\n        /* \"#utility.yul\":5647:5750   */\n    tag_139:\n        /* \"#utility.yul\":5777:5778   */\n      0x01\n        /* \"#utility.yul\":5770:5775   */\n      dup3\n        /* \"#utility.yul\":5766:5779   */\n      add\n        /* \"#utility.yul\":5759:5779   */\n      swap1\n      pop\n        /* \"#utility.yul\":5552:5785   */\n      swap2\n      swap1\n      pop\n      jump\t// out\n        /* \"#utility.yul\":5791:5971   */\n    tag_58:\n        /* \"#utility.yul\":5839:5916   */\n      0x4e487b7100000000000000000000000000000000000000000000000000000000\n        /* \"#utility.yul\":5836:5837   */\n      0x00\n        /* \"#utility.yul\":5829:5917   */\n      mstore\n        /* \"#utility.yul\":5936:5940   */\n      0x22\n        /* \"#utility.yul\":5933:5934   */\n      0x04\n        /* \"#utility.yul\":5926:5941   */\n      mstore\n        /* \"#utility.yul\":5960:5964   */\n      0x24\n        /* \"#utility.yul\":5957:5958   */\n      0x00\n        /* \"#utility.yul\":5950:5965   */\n      revert\n        /* \"#utility.yul\":5977:6297   */\n    tag_30:\n        /* \"#utility.yul\":6021:6027   */\n      0x00\n        /* \"#utility.yul\":6058:6059   */\n      0x02\n        /* \"#utility.yul\":6052:6056   */\n      dup3\n        /* \"#utility.yul\":6048:6060   */\n      div\n        /* \"#utility.yul\":6038:6060   */\n      swap1\n      pop\n        /* \"#utility.yul\":6105:6106   */\n      0x01\n        /* \"#utility.yul\":6099:6103   */\n      dup3\n        /* \"#utility.yul\":6095:6107   */\n      and\n        /* \"#utility.yul\":6126:6144   */\n      dup1\n        /* \"#utility.yul\":6116:6197   */\n      tag_143\n      jumpi\n        /* \"#utility.yul\":6182:6186   */\n      0x7f\n        /* \"#utility.yul\":6174:6180   */\n      dup3\n        /* \"#utility.yul\":6170:6187   */\n      and\n        /* \"#utility.yul\":6160:6187   */\n      swap2\n      pop\n        /* \"#utility.yul\":6116:6197   */\n    tag_143:\n        /* \"#utility.yul\":6244:6246   */\n      0x20\n        /* \"#utility.yul\":6236:6242   */\n      dup3\n        /* \"#utility.yul\":6233:6247   */\n      lt\n        /* \"#utility.yul\":6213:6231   */\n      dup2\n        /* \"#utility.yul\":6210:6248   */\n      sub\n        /* \"#utility.yul\":6207:6291   */\n      tag_144\n      jumpi\n        /* \"#utility.yul\":6263:6281   */\n      tag_145\n      tag_58\n      jump\t// in\n    tag_145:\n        /* \"#utility.yul\":6207:6291   */\n    tag_144:\n        /* \"#utility.yul\":6028:6297   */\n      pop\n        /* \"#utility.yul\":5977:6297   */\n      swap2\n      swap1\n      pop\n      jump\t// out\n        /* \"#utility.yul\":6303:6444   */\n    tag_59:\n        /* \"#utility.yul\":6352:6356   */\n      0x00\n        /* \"#utility.yul\":6375:6378   */\n      dup2\n        /* \"#utility.yul\":6367:6378   */\n      swap1\n      pop\n        /* \"#utility.yul\":6398:6401   */\n      dup2\n        /* \"#utility.yul\":6395:6396   */\n      0x00\n        /* \"#utility.yul\":6388:6402   */\n      mstore\n        /* \"#utility.yul\":6432:6436   */\n      0x20\n        /* \"#utility.yul\":6429:6430   */\n      0x00\n        /* \"#utility.yul\":6419:6437   */\n      keccak256\n        /* \"#utility.yul\":6411:6437   */\n      swap1\n      pop\n        /* \"#utility.yul\":6303:6444   */\n      swap2\n      swap1\n      pop\n      jump\t// out\n        /* \"#utility.yul\":6450:6543   */\n    tag_60:\n        /* \"#utility.yul\":6487:6493   */\n      0x00\n        /* \"#utility.yul\":6534:6536   */\n      0x20\n        /* \"#utility.yul\":6529:6531   */\n      0x1f\n        /* \"#utility.yul\":6522:6527   */\n      dup4\n        /* \"#utility.yul\":6518:6532   */\n      add\n        /* \"#utility.yul\":6514:6537   */\n      div\n        /* \"#utility.yul\":6504:6537   */\n      swap1\n      pop\n        /* \"#utility.yul\":6450:6543   */\n      swap2\n      swap1\n      pop\n      jump\t// out\n        /* \"#utility.yul\":6549:6656   */\n    tag_61:\n        /* \"#utility.yul\":6593:6601   */\n      0x00\n        /* \"#utility.yul\":6643:6648   */\n      dup3\n        /* \"#utility.yul\":6637:6641   */\n      dup3\n        /* \"#utility.yul\":6633:6649   */\n      shl\n        /* \"#utility.yul\":6612:6649   */\n      swap1\n      pop\n        /* \"#utility.yul\":6549:6656   */\n      swap3\n      swap2\n      pop\n      pop\n      jump\t// out\n        /* \"#utility.yul\":6662:7055   */\n    tag_62:\n        /* \"#utility.yul\":6731:6737   */\n      0x00\n        /* \"#utility.yul\":6781:6782   */\n      0x08\n        /* \"#utility.yul\":6769:6779   */\n      dup4\n        /* \"#utility.yul\":6765:6783   */\n      mul\n        /* \"#utility.yul\":6804:6901   */\n      tag_150\n        /* \"#utility.yul\":6834:6900   */\n      0xffffffffffffffffffffffffffffffffffffffffffffffffffffffffffffffff\n        /* \"#utility.yul\":6823:6832   */\n      dup3\n        /* \"#utility.yul\":6804:6901   */\n      tag_61\n      jump\t// in\n    tag_150:\n        /* \"#utility.yul\":6922:6961   */\n      tag_151\n        /* \"#utility.yul\":6952:6960   */\n      dup7\n        /* \"#utility.yul\":6941:6950   */\n      dup4\n        /* \"#utility.yul\":6922:6961   */\n      tag_61\n      jump\t// in\n    tag_151:\n        /* \"#utility.yul\":6910:6961   */\n      swap6\n      pop\n        /* \"#utility.yul\":6994:6998   */\n      dup1\n        /* \"#utility.yul\":6990:6999   */\n      not\n        /* \"#utility.yul\":6983:6988   */\n      dup5\n        /* \"#utility.yul\":6979:7000   */\n      and\n        /* \"#utility.yul\":6970:7000   */\n      swap4\n      pop\n        /* \"#utility.yul\":7043:7047   */\n      dup1\n        /* \"#utility.yul\":7033:7041   */\n      dup7\n        /* \"#utility.yul\":7029:7048   */\n      and\n        /* \"#utility.yul\":7022:7027   */\n      dup5\n        /* \"#utility.yul\":7019:7049   */\n      or\n        /* \"#utility.yul\":7009:7049   */\n      swap3\n      pop\n        /* \"#utility.yul\":6738:7055   */\n      pop\n      pop\n        /* \"#utility.yul\":6662:7055   */\n      swap4\n      swap3\n      pop\n      pop\n      pop\n      jump\t// out\n        /* \"#utility.yul\":7061:7121   */\n    tag_63:\n        /* \"#utility.yul\":7089:7092   */\n      0x00\n        /* \"#utility.yul\":7110:7115   */\n      dup2\n        /* \"#utility.yul\":7103:7115   */\n      swap1\n      pop\n        /* \"#utility.yul\":7061:7121   */\n      swap2\n      swap1\n      pop\n      jump\t// out\n        /* \"#utility.yul\":7127:7269   */\n    tag_64:\n        /* \"#utility.yul\":7177:7186   */\n      0x00\n        /* \"#utility.yul\":7210:7263   */\n      tag_154\n        /* \"#utility.yul\":7228:7262   */\n      tag_155\n        /* \"#utility.yul\":7237:7261   */\n      tag_156\n        /* \"#utility.yul\":7255:7260   */\n      dup5\n        /* \"#utility.yul\":7237:7261   */\n      tag_55\n      jump\t// in\n    tag_156:\n        /* \"#utility.yul\":7228:7262   */\n      tag_63\n      jump\t// in\n    tag_155:\n        /* \"#utility.yul\":7210:7263   */\n      tag_55\n      jump\t// in\n    tag_154:\n        /* \"#utility.yul\":7197:7263   */\n      swap1\n      pop\n        /* \"#utility.yul\":7127:7269   */\n      swap2\n      swap1\n      pop\n      jump\t// out\n        /* \"#utility.yul\":7275:7350   */\n    tag_65:\n        /* \"#utility.yul\":7318:7321   */\n      0x00\n        /* \"#utility.yul\":7339:7344   */\n      dup2\n        /* \"#utility.yul\":7332:7344   */\n      swap1\n      pop\n        /* \"#utility.yul\":7275:7350   */\n      swap2\n      swap1\n      pop\n      jump\t// out\n        /* \"#utility.yul\":7356:7625   */\n    tag_66:\n        /* \"#utility.yul\":7466:7505   */\n      tag_159\n        /* \"#utility.yul\":7497:7504   */\n      dup4\n        /* \"#utility.yul\":7466:7505   */\n      tag_64\n      jump\t// in\n    tag_159:\n        /* \"#utility.yul\":7527:7618   */\n      tag_160\n        /* \"#utility.yul\":7576:7617   */\n      tag_161\n        /* \"#utility.yul\":7600:7616   */\n      dup3\n        /* \"#utility.yul\":7576:7617   */\n      tag_65\n      jump\t// in\n    tag_161:\n        /* \"#utility.yul\":7568:7574   */\n      dup5\n        /* \"#utility.yul\":7561:7565   */\n      dup5\n        /* \"#utility.yul\":7555:7566   */\n      sload\n        /* \"#utility.yul\":7527:7618   */\n      tag_62\n      jump\t// in\n    tag_160:\n        /* \"#utility.yul\":7521:7525   */\n      dup3\n        /* \"#utility.yul\":7514:7619   */\n      sstore\n        /* \"#utility.yul\":7432:7625   */\n      pop\n        /* \"#utility.yul\":7356:7625   */\n      pop\n      pop\n      pop\n      jump\t// out\n        /* \"#utility.yul\":7631:7704   */\n    tag_67:\n        /* \"#utility.yul\":7676:7679   */\n      0x00\n        /* \"#utility.yul\":7631:7704   */\n      swap1\n      jump\t// out\n        /* \"#utility.yul\":7710:7899   */\n    tag_68:\n        /* \"#utility.yul\":7787:7819   */\n      tag_164\n      tag_67\n      jump\t// in\n    tag_164:\n        /* \"#utility.yul\":7828:7893   */\n      tag_165\n        /* \"#utility.yul\":7886:7892   */\n      dup2\n        /* \"#utility.yul\":7878:7884   */\n      dup5\n        /* \"#utility.yul\":7872:7876   */\n      dup5\n        /* \"#utility.yul\":7828:7893   */\n      tag_66\n      jump\t// in\n    tag_165:\n        /* \"#utility.yul\":7763:7899   */\n      pop\n        /* \"#utility.yul\":7710:7899   */\n      pop\n      pop\n      jump\t// out\n        /* \"#utility.yul\":7905:8091   */\n    tag_69:\n        /* \"#utility.yul\":7965:8085   */\n    tag_167:\n        /* \"#utility.yul\":7982:7985   */\n      dup2\n        /* \"#utility.yul\":7975:7980   */\n      dup2\n        /* \"#utility.yul\":7972:7986   */\n      lt\n        /* \"#utility.yul\":7965:8085   */\n      iszero\n      tag_169\n      jumpi\n        /* \"#utility.yul\":8036:8075   */\n      tag_170\n        /* \"#utility.yul\":8073:8074   */\n      0x00\n        /* \"#utility.yul\":8066:8071   */\n      dup3\n        /* \"#utility.yul\":8036:8075   */\n      tag_68\n      jump\t// in\n    tag_170:\n        /* \"#utility.yul\":8009:8010   */\n      0x01\n        /* \"#utility.yul\":8002:8007   */\n      dup2\n        /* \"#utility.yul\":7998:8011   */\n      add\n        /* \"#utility.yul\":7989:8011   */\n      swap1\n      pop\n        /* \"#utility.yul\":7965:8085   */\n      jump(tag_167)\n    tag_169:\n        /* \"#utility.yul\":7905:8091   */\n      pop\n      pop\n      jump\t// out\n        /* \"#utility.yul\":8097:8640   */\n    tag_70:\n        /* \"#utility.yul\":8198:8200   */\n      0x1f\n        /* \"#utility.yul\":8193:8196   */\n      dup3\n        /* \"#utility.yul\":8190:8201   */\n      gt\n        /* \"#utility.yul\":8187:8633   */\n      iszero\n      tag_172\n      jumpi\n        /* \"#utility.yul\":8232:8270   */\n      tag_173\n        /* \"#utility.yul\":8264:8269   */\n      dup2\n        /* \"#utility.yul\":8232:8270   */\n      tag_59\n      jump\t// in\n    tag_173:\n        /* \"#utility.yul\":8316:8345   */\n      tag_174\n        /* \"#utility.yul\":8334:8344   */\n      dup5\n        /* \"#utility.yul\":8316:8345   */\n      tag_60\n      jump\t// in\n    tag_174:\n        /* \"#utility.yul\":8306:8314   */\n      dup2\n        /* \"#utility.yul\":8302:8346   */\n      add\n        /* \"#utility.yul\":8499:8501   */\n      0x20\n        /* \"#utility.yul\":8487:8497   */\n      dup6\n        /* \"#utility.yul\":8484:8502   */\n      lt\n        /* \"#utility.yul\":8481:8530   */\n      iszero\n      tag_175\n      jumpi\n        /* \"#utility.yul\":8520:8528   */\n      dup2\n        /* \"#utility.yul\":8505:8528   */\n      swap1\n      pop\n        /* \"#utility.yul\":8481:8530   */\n    tag_175:\n        /* \"#utility.yul\":8543:8623   */\n      tag_176\n        /* \"#utility.yul\":8599:8621   */\n      tag_177\n        /* \"#utility.yul\":8617:8620   */\n      dup6\n        /* \"#utility.yul\":8599:8621   */\n      tag_60\n      jump\t// in\n    tag_177:\n        /* \"#utility.yul\":8589:8597   */\n      dup4\n        /* \"#utility.yul\":8585:8622   */\n      add\n        /* \"#utility.yul\":8572:8583   */\n      dup3\n        /* \"#utility.yul\":8543:8623   */\n      tag_69\n      jump\t// in\n    tag_176:\n        /* \"#utility.yul\":8202:8633   */\n      pop\n      pop\n        /* \"#utility.yul\":8187:8633   */\n    tag_172:\n        /* \"#utility.yul\":8097:8640   */\n      pop\n      pop\n      pop\n      jump\t// out\n        /* \"#utility.yul\":8646:8763   */\n    tag_71:\n        /* \"#utility.yul\":8700:8708   */\n      0x00\n        /* \"#utility.yul\":8750:8755   */\n      dup3\n        /* \"#utility.yul\":8744:8748   */\n      dup3\n        /* \"#utility.yul\":8740:8756   */\n      shr\n        /* \"#utility.yul\":8719:8756   */\n      swap1\n      pop\n        /* \"#utility.yul\":8646:8763   */\n      swap3\n      swap2\n      pop\n      pop\n      jump\t// out\n        /* \"#utility.yul\":8769:8938   */\n    tag_72:\n        /* \"#utility.yul\":8813:8819   */\n      0x00\n        /* \"#utility.yul\":8846:8897   */\n      tag_180\n        /* \"#utility.yul\":8894:8895   */\n      0x00\n        /* \"#utility.yul\":8890:8896   */\n      not\n        /* \"#utility.yul\":8882:8887   */\n      dup5\n        /* \"#utility.yul\":8879:8880   */\n      0x08\n        /* \"#utility.yul\":8875:8888   */\n      mul\n        /* \"#utility.yul\":8846:8897   */\n      tag_71\n      jump\t// in\n    tag_180:\n        /* \"#utility.yul\":8842:8898   */\n      not\n        /* \"#utility.yul\":8927:8931   */\n      dup1\n        /* \"#utility.yul\":8921:8925   */\n      dup4\n        /* \"#utility.yul\":8917:8932   */\n      and\n        /* \"#utility.yul\":8907:8932   */\n      swap2\n      pop\n        /* \"#utility.yul\":8820:8938   */\n      pop\n        /* \"#utility.yul\":8769:8938   */\n      swap3\n      swap2\n      pop\n      pop\n      jump\t// out\n        /* \"#utility.yul\":8943:9238   */\n    tag_73:\n        /* \"#utility.yul\":9019:9023   */\n      0x00\n        /* \"#utility.yul\":9165:9194   */\n      tag_182\n        /* \"#utility.yul\":9190:9193   */\n      dup4\n        /* \"#utility.yul\":9184:9188   */\n      dup4\n        /* \"#utility.yul\":9165:9194   */\n      tag_72\n      jump\t// in\n    tag_182:\n        /* \"#utility.yul\":9157:9194   */\n      swap2\n      pop\n        /* \"#utility.yul\":9227:9230   */\n      dup3\n        /* \"#utility.yul\":9224:9225   */\n      0x02\n        /* \"#utility.yul\":9220:9231   */\n      mul\n        /* \"#utility.yul\":9214:9218   */\n      dup3\n        /* \"#utility.yul\":9211:9232   */\n      or\n        /* \"#utility.yul\":9203:9232   */\n      swap1\n      pop\n        /* \"#utility.yul\":8943:9238   */\n      swap3\n      swap2\n      pop\n      pop\n      jump\t// out\n        /* \"#utility.yul\":9243:10638   */\n    tag_28:\n        /* \"#utility.yul\":9360:9397   */\n      tag_184\n        /* \"#utility.yul\":9393:9396   */\n      dup3\n        /* \"#utility.yul\":9360:9397   */\n      tag_48\n      jump\t// in\n    tag_184:\n        /* \"#utility.yul\":9462:9480   */\n      0xffffffffffffffff\n        /* \"#utility.yul\":9454:9460   */\n      dup2\n        /* \"#utility.yul\":9451:9481   */\n      gt\n        /* \"#utility.yul\":9448:9504   */\n      iszero\n      tag_185\n      jumpi\n        /* \"#utility.yul\":9484:9502   */\n      tag_186\n      tag_41\n      jump\t// in\n    tag_186:\n        /* \"#utility.yul\":9448:9504   */\n    tag_185:\n        /* \"#utility.yul\":9528:9566   */\n      tag_187\n        /* \"#utility.yul\":9560:9564   */\n      dup3\n        /* \"#utility.yul\":9554:9565   */\n      sload\n        /* \"#utility.yul\":9528:9566   */\n      tag_30\n      jump\t// in\n    tag_187:\n        /* \"#utility.yul\":9613:9680   */\n      tag_188\n        /* \"#utility.yul\":9673:9679   */\n      dup3\n        /* \"#utility.yul\":9665:9671   */\n      dup3\n        /* \"#utility.yul\":9659:9663   */\n      dup6\n        /* \"#utility.yul\":9613:9680   */\n      tag_70\n      jump\t// in\n    tag_188:\n        /* \"#utility.yul\":9707:9708   */\n      0x00\n        /* \"#utility.yul\":9731:9735   */\n      0x20\n        /* \"#utility.yul\":9718:9735   */\n      swap1\n      pop\n        /* \"#utility.yul\":9763:9765   */\n      0x1f\n        /* \"#utility.yul\":9755:9761   */\n      dup4\n        /* \"#utility.yul\":9752:9766   */\n      gt\n        /* \"#utility.yul\":9780:9781   */\n      0x01\n        /* \"#utility.yul\":9775:10393   */\n      dup2\n      eq\n      tag_190\n      jumpi\n        /* \"#utility.yul\":10437:10438   */\n      0x00\n        /* \"#utility.yul\":10454:10460   */\n      dup5\n        /* \"#utility.yul\":10451:10528   */\n      iszero\n      tag_191\n      jumpi\n        /* \"#utility.yul\":10503:10512   */\n      dup3\n        /* \"#utility.yul\":10498:10501   */\n      dup8\n        /* \"#utility.yul\":10494:10513   */\n      add\n        /* \"#utility.yul\":10488:10514   */\n      mload\n        /* \"#utility.yul\":10479:10514   */\n      swap1\n      pop\n        /* \"#utility.yul\":10451:10528   */\n    tag_191:\n        /* \"#utility.yul\":10554:10621   */\n      tag_192\n        /* \"#utility.yul\":10614:10620   */\n      dup6\n        /* \"#utility.yul\":10607:10612   */\n      dup3\n        /* \"#utility.yul\":10554:10621   */\n      tag_73\n      jump\t// in\n    tag_192:\n        /* \"#utility.yul\":10548:10552   */\n      dup7\n        /* \"#utility.yul\":10541:10622   */\n      sstore\n        /* \"#utility.yul\":10410:10632   */\n      pop\n        /* \"#utility.yul\":9745:10632   */\n      jump(tag_189)\n        /* \"#utility.yul\":9775:10393   */\n    tag_190:\n        /* \"#utility.yul\":9827:9831   */\n      0x1f\n        /* \"#utility.yul\":9823:9832   */\n      not\n        /* \"#utility.yul\":9815:9821   */\n      dup5\n        /* \"#utility.yul\":9811:9833   */\n      and\n        /* \"#utility.yul\":9861:9898   */\n      tag_193\n        /* \"#utility.yul\":9893:9897   */\n      dup7\n        /* \"#utility.yul\":9861:9898   */\n      tag_59\n      jump\t// in\n    tag_193:\n        /* \"#utility.yul\":9920:9921   */\n      0x00\n        /* \"#utility.yul\":9934:10142   */\n    tag_194:\n        /* \"#utility.yul\":9948:9955   */\n      dup3\n        /* \"#utility.yul\":9945:9946   */\n      dup2\n        /* \"#utility.yul\":9942:9956   */\n      lt\n        /* \"#utility.yul\":9934:10142   */\n      iszero\n      tag_196\n      jumpi\n        /* \"#utility.yul\":10027:10036   */\n      dup5\n        /* \"#utility.yul\":10022:10025   */\n      dup10\n        /* \"#utility.yul\":10018:10037   */\n      add\n        /* \"#utility.yul\":10012:10038   */\n      mload\n        /* \"#utility.yul\":10004:10010   */\n      dup3\n        /* \"#utility.yul\":9997:10039   */\n      sstore\n        /* \"#utility.yul\":10078:10079   */\n      0x01\n        /* \"#utility.yul\":10070:10076   */\n      dup3\n        /* \"#utility.yul\":10066:10080   */\n      add\n        /* \"#utility.yul\":10056:10080   */\n      swap2\n      pop\n        /* \"#utility.yul\":10125:10127   */\n      0x20\n        /* \"#utility.yul\":10114:10123   */\n      dup6\n        /* \"#utility.yul\":10110:10128   */\n      add\n        /* \"#utility.yul\":10097:10128   */\n      swap5\n      pop\n        /* \"#utility.yul\":9971:9975   */\n      0x20\n        /* \"#utility.yul\":9968:9969   */\n      dup2\n        /* \"#utility.yul\":9964:9976   */\n      add\n        /* \"#utility.yul\":9959:9976   */\n      swap1\n      pop\n        /* \"#utility.yul\":9934:10142   */\n      jump(tag_194)\n    tag_196:\n        /* \"#utility.yul\":10170:10176   */\n      dup7\n        /* \"#utility.yul\":10161:10168   */\n      dup4\n        /* \"#utility.yul\":10158:10177   */\n      lt\n        /* \"#utility.yul\":10155:10334   */\n      iszero\n      tag_197\n      jumpi\n        /* \"#utility.yul\":10228:10237   */\n      dup5\n        /* \"#utility.yul\":10223:10226   */\n      dup10\n        /* \"#utility.yul\":10219:10238   */\n      add\n        /* \"#utility.yul\":10213:10239   */\n      mload\n        /* \"#utility.yul\":10271:10319   */\n      tag_198\n        /* \"#utility.yul\":10313:10317   */\n      0x1f\n        /* \"#utility.yul\":10305:10311   */\n      dup10\n        /* \"#utility.yul\":10301:10318   */\n      and\n        /* \"#utility.yul\":10290:10299   */\n      dup3\n        /* \"#utility.yul\":10271:10319   */\n      tag_72\n      jump\t// in\n    tag_198:\n        /* \"#utility.yul\":10263:10269   */\n      dup4\n        /* \"#utility.yul\":10256:10320   */\n      sstore\n        /* \"#utility.yul\":10178:10334   */\n      pop\n        /* \"#utility.yul\":10155:10334   */\n    tag_197:\n        /* \"#utility.yul\":10380:10381   */\n      0x01\n        /* \"#utility.yul\":10376:10377   */\n      0x02\n        /* \"#utility.yul\":10368:10374   */\n      dup9\n        /* \"#utility.yul\":10364:10378   */\n      mul\n        /* \"#utility.yul\":10360:10382   */\n      add\n        /* \"#utility.yul\":10354:10358   */\n      dup9\n        /* \"#utility.yul\":10347:10383   */\n      sstore\n        /* \"#utility.yul\":9782:10393   */\n      pop\n      pop\n      pop\n        /* \"#utility.yul\":9745:10632   */\n    tag_189:\n      pop\n        /* \"#utility.yul\":9335:10638   */\n      pop\n      pop\n      pop\n        /* \"#utility.yul\":9243:10638   */\n      pop\n      pop\n      jump\t// out\n\n    auxdata: 0xa2646970667358221220e6958a262b2725f6b5e063b375b624034c3ff9eb628d50f3267d29a4ca538f7364736f6c634300080f0033\n}\n",
				"bytecode": {
					"linkReferences": {},
					"object": "608060405234801561001057600080fd5b5033600160006101000a81548173ffffffffffffffffffffffffffffffffffffffff021916908373ffffffffffffffffffffffffffffffffffffffff160217905550610869806100616000396000f3fe608060405234801561001057600080fd5b506004361061004c5760003560e01c80631d51057c14610051578063492bfa181461006d5780638da5cb5b1461008b578063aaf4389a146100a9575b600080fd5b61006b6004803603810190610066919061035b565b6100c7565b005b610075610147565b604051610082919061042c565b60405180910390f35b6100936101d5565b6040516100a0919061048f565b60405180910390f35b6100b16101fb565b6040516100be91906104c3565b60405180910390f35b600160009054906101000a900473ffffffffffffffffffffffffffffffffffffffff1673ffffffffffffffffffffffffffffffffffffffff163373ffffffffffffffffffffffffffffffffffffffff16036101445760008081548092919061012e9061050d565b919050555080600290816101429190610761565b505b50565b6002805461015490610584565b80601f016020809104026020016040519081016040528092919081815260200182805461018090610584565b80156101cd5780601f106101a2576101008083540402835291602001916101cd565b820191906000526020600020905b8154815290600101906020018083116101b057829003601f168201915b505050505081565b600160009054906101000a900473ffffffffffffffffffffffffffffffffffffffff1681565b60005481565b6000604051905090565b600080fd5b600080fd5b600080fd5b600080fd5b6000601f19601f8301169050919050565b7f4e487b7100000000000000000000000000000000000000000000000000000000600052604160045260246000fd5b6102688261021f565b810181811067ffffffffffffffff8211171561028757610286610230565b5b80604052505050565b600061029a610201565b90506102a6828261025f565b919050565b600067ffffffffffffffff8211156102c6576102c5610230565b5b6102cf8261021f565b9050602081019050919050565b82818337600083830152505050565b60006102fe6102f9846102ab565b610290565b90508281526020810184848401111561031a5761031961021a565b5b6103258482856102dc565b509392505050565b600082601f83011261034257610341610215565b5b81356103528482602086016102eb565b91505092915050565b6000602082840312156103715761037061020b565b5b600082013567ffffffffffffffff81111561038f5761038e610210565b5b61039b8482850161032d565b91505092915050565b600081519050919050565b600082825260208201905092915050565b60005b838110156103de5780820151818401526020810190506103c3565b838111156103ed576000848401525b50505050565b60006103fe826103a4565b61040881856103af565b93506104188185602086016103c0565b6104218161021f565b840191505092915050565b6000602082019050818103600083015261044681846103f3565b905092915050565b600073ffffffffffffffffffffffffffffffffffffffff82169050919050565b60006104798261044e565b9050919050565b6104898161046e565b82525050565b60006020820190506104a46000830184610480565b92915050565b6000819050919050565b6104bd816104aa565b82525050565b60006020820190506104d860008301846104b4565b92915050565b7f4e487b7100000000000000000000000000000000000000000000000000000000600052601160045260246000fd5b6000610518826104aa565b91507fffffffffffffffffffffffffffffffffffffffffffffffffffffffffffffffff820361054a576105496104de565b5b600182019050919050565b7f4e487b7100000000000000000000000000000000000000000000000000000000600052602260045260246000fd5b6000600282049050600182168061059c57607f821691505b6020821081036105af576105ae610555565b5b50919050565b60008190508160005260206000209050919050565b60006020601f8301049050919050565b600082821b905092915050565b6000600883026106177fffffffffffffffffffffffffffffffffffffffffffffffffffffffffffffffff826105da565b61062186836105da565b95508019841693508086168417925050509392505050565b6000819050919050565b600061065e610659610654846104aa565b610639565b6104aa565b9050919050565b6000819050919050565b61067883610643565b61068c61068482610665565b8484546105e7565b825550505050565b600090565b6106a1610694565b6106ac81848461066f565b505050565b5b818110156106d0576106c5600082610699565b6001810190506106b2565b5050565b601f821115610715576106e6816105b5565b6106ef846105ca565b810160208510156106fe578190505b61071261070a856105ca565b8301826106b1565b50505b505050565b600082821c905092915050565b60006107386000198460080261071a565b1980831691505092915050565b60006107518383610727565b9150826002028217905092915050565b61076a826103a4565b67ffffffffffffffff81111561078357610782610230565b5b61078d8254610584565b6107988282856106d4565b600060209050601f8311600181146107cb57600084156107b9578287015190505b6107c38582610745565b86555061082b565b601f1984166107d9866105b5565b60005b82811015610801578489015182556001820191506020850194506020810190506107dc565b8683101561081e578489015161081a601f891682610727565b8355505b6001600288020188555050505b50505050505056fea2646970667358221220e6958a262b2725f6b5e063b375b624034c3ff9eb628d50f3267d29a4ca538f7364736f6c634300080f0033",
					"opcodes": "PUSH1 0x80 PUSH1 0x40 MSTORE CALLVALUE DUP1 ISZERO PUSH2 0x10 JUMPI PUSH1 0x0 DUP1 REVERT JUMPDEST POP CALLER PUSH1 0x1 PUSH1 0x0 PUSH2 0x100 EXP DUP2 SLOAD DUP2 PUSH20 0xFFFFFFFFFFFFFFFFFFFFFFFFFFFFFFFFFFFFFFFF MUL NOT AND SWAP1 DUP4 PUSH20 0xFFFFFFFFFFFFFFFFFFFFFFFFFFFFFFFFFFFFFFFF AND MUL OR SWAP1 SSTORE POP PUSH2 0x869 DUP1 PUSH2 0x61 PUSH1 0x0 CODECOPY PUSH1 0x0 RETURN INVALID PUSH1 0x80 PUSH1 0x40 MSTORE CALLVALUE DUP1 ISZERO PUSH2 0x10 JUMPI PUSH1 0x0 DUP1 REVERT JUMPDEST POP PUSH1 0x4 CALLDATASIZE LT PUSH2 0x4C JUMPI PUSH1 0x0 CALLDATALOAD PUSH1 0xE0 SHR DUP1 PUSH4 0x1D51057C EQ PUSH2 0x51 JUMPI DUP1 PUSH4 0x492BFA18 EQ PUSH2 0x6D JUMPI DUP1 PUSH4 0x8DA5CB5B EQ PUSH2 0x8B JUMPI DUP1 PUSH4 0xAAF4389A EQ PUSH2 0xA9 JUMPI JUMPDEST PUSH1 0x0 DUP1 REVERT JUMPDEST PUSH2 0x6B PUSH1 0x4 DUP1 CALLDATASIZE SUB DUP2 ADD SWAP1 PUSH2 0x66 SWAP2 SWAP1 PUSH2 0x35B JUMP JUMPDEST PUSH2 0xC7 JUMP JUMPDEST STOP JUMPDEST PUSH2 0x75 PUSH2 0x147 JUMP JUMPDEST PUSH1 0x40 MLOAD PUSH2 0x82 SWAP2 SWAP1 PUSH2 0x42C JUMP JUMPDEST PUSH1 0x40 MLOAD DUP1 SWAP2 SUB SWAP1 RETURN JUMPDEST PUSH2 0x93 PUSH2 0x1D5 JUMP JUMPDEST PUSH1 0x40 MLOAD PUSH2 0xA0 SWAP2 SWAP1 PUSH2 0x48F JUMP JUMPDEST PUSH1 0x40 MLOAD DUP1 SWAP2 SUB SWAP1 RETURN JUMPDEST PUSH2 0xB1 PUSH2 0x1FB JUMP JUMPDEST PUSH1 0x40 MLOAD PUSH2 0xBE SWAP2 SWAP1 PUSH2 0x4C3 JUMP JUMPDEST PUSH1 0x40 MLOAD DUP1 SWAP2 SUB SWAP1 RETURN JUMPDEST PUSH1 0x1 PUSH1 0x0 SWAP1 SLOAD SWAP1 PUSH2 0x100 EXP SWAP1 DIV PUSH20 0xFFFFFFFFFFFFFFFFFFFFFFFFFFFFFFFFFFFFFFFF AND PUSH20 0xFFFFFFFFFFFFFFFFFFFFFFFFFFFFFFFFFFFFFFFF AND CALLER PUSH20 0xFFFFFFFFFFFFFFFFFFFFFFFFFFFFFFFFFFFFFFFF AND SUB PUSH2 0x144 JUMPI PUSH1 0x0 DUP1 DUP2 SLOAD DUP1 SWAP3 SWAP2 SWAP1 PUSH2 0x12E SWAP1 PUSH2 0x50D JUMP JUMPDEST SWAP2 SWAP1 POP SSTORE POP DUP1 PUSH1 0x2 SWAP1 DUP2 PUSH2 0x142 SWAP2 SWAP1 PUSH2 0x761 JUMP JUMPDEST POP JUMPDEST POP JUMP JUMPDEST PUSH1 0x2 DUP1 SLOAD PUSH2 0x154 SWAP1 PUSH2 0x584 JUMP JUMPDEST DUP1 PUSH1 0x1F ADD PUSH1 0x20 DUP1 SWAP2 DIV MUL PUSH1 0x20 ADD PUSH1 0x40 MLOAD SWAP1 DUP2 ADD PUSH1 0x40 MSTORE DUP1 SWAP3 SWAP2 SWAP1 DUP2 DUP2 MSTORE PUSH1 0x20 ADD DUP3 DUP1 SLOAD PUSH2 0x180 SWAP1 PUSH2 0x584 JUMP JUMPDEST DUP1 ISZERO PUSH2 0x1CD JUMPI DUP1 PUSH1 0x1F LT PUSH2 0x1A2 JUMPI PUSH2 0x100 DUP1 DUP4 SLOAD DIV MUL DUP4 MSTORE SWAP2 PUSH1 0x20 ADD SWAP2 PUSH2 0x1CD JUMP JUMPDEST DUP3 ADD SWAP2 SWAP1 PUSH1 0x0 MSTORE PUSH1 0x20 PUSH1 0x0 KECCAK256 SWAP1 JUMPDEST DUP2 SLOAD DUP2 MSTORE SWAP1 PUSH1 0x1 ADD SWAP1 PUSH1 0x20 ADD DUP1 DUP4 GT PUSH2 0x1B0 JUMPI DUP3 SWAP1 SUB PUSH1 0x1F AND DUP3 ADD SWAP2 JUMPDEST POP POP POP POP POP DUP2 JUMP JUMPDEST PUSH1 0x1 PUSH1 0x0 SWAP1 SLOAD SWAP1 PUSH2 0x100 EXP SWAP1 DIV PUSH20 0xFFFFFFFFFFFFFFFFFFFFFFFFFFFFFFFFFFFFFFFF AND DUP2 JUMP JUMPDEST PUSH1 0x0 SLOAD DUP2 JUMP JUMPDEST PUSH1 0x0 PUSH1 0x40 MLOAD SWAP1 POP SWAP1 JUMP JUMPDEST PUSH1 0x0 DUP1 REVERT JUMPDEST PUSH1 0x0 DUP1 REVERT JUMPDEST PUSH1 0x0 DUP1 REVERT JUMPDEST PUSH1 0x0 DUP1 REVERT JUMPDEST PUSH1 0x0 PUSH1 0x1F NOT PUSH1 0x1F DUP4 ADD AND SWAP1 POP SWAP2 SWAP1 POP JUMP JUMPDEST PUSH32 0x4E487B7100000000000000000000000000000000000000000000000000000000 PUSH1 0x0 MSTORE PUSH1 0x41 PUSH1 0x4 MSTORE PUSH1 0x24 PUSH1 0x0 REVERT JUMPDEST PUSH2 0x268 DUP3 PUSH2 0x21F JUMP JUMPDEST DUP2 ADD DUP2 DUP2 LT PUSH8 0xFFFFFFFFFFFFFFFF DUP3 GT OR ISZERO PUSH2 0x287 JUMPI PUSH2 0x286 PUSH2 0x230 JUMP JUMPDEST JUMPDEST DUP1 PUSH1 0x40 MSTORE POP POP POP JUMP JUMPDEST PUSH1 0x0 PUSH2 0x29A PUSH2 0x201 JUMP JUMPDEST SWAP1 POP PUSH2 0x2A6 DUP3 DUP3 PUSH2 0x25F JUMP JUMPDEST SWAP2 SWAP1 POP JUMP JUMPDEST PUSH1 0x0 PUSH8 0xFFFFFFFFFFFFFFFF DUP3 GT ISZERO PUSH2 0x2C6 JUMPI PUSH2 0x2C5 PUSH2 0x230 JUMP JUMPDEST JUMPDEST PUSH2 0x2CF DUP3 PUSH2 0x21F JUMP JUMPDEST SWAP1 POP PUSH1 0x20 DUP2 ADD SWAP1 POP SWAP2 SWAP1 POP JUMP JUMPDEST DUP3 DUP2 DUP4 CALLDATACOPY PUSH1 0x0 DUP4 DUP4 ADD MSTORE POP POP POP JUMP JUMPDEST PUSH1 0x0 PUSH2 0x2FE PUSH2 0x2F9 DUP5 PUSH2 0x2AB JUMP JUMPDEST PUSH2 0x290 JUMP JUMPDEST SWAP1 POP DUP3 DUP2 MSTORE PUSH1 0x20 DUP2 ADD DUP5 DUP5 DUP5 ADD GT ISZERO PUSH2 0x31A JUMPI PUSH2 0x319 PUSH2 0x21A JUMP JUMPDEST JUMPDEST PUSH2 0x325 DUP5 DUP3 DUP6 PUSH2 0x2DC JUMP JUMPDEST POP SWAP4 SWAP3 POP POP POP JUMP JUMPDEST PUSH1 0x0 DUP3 PUSH1 0x1F DUP4 ADD SLT PUSH2 0x342 JUMPI PUSH2 0x341 PUSH2 0x215 JUMP JUMPDEST JUMPDEST DUP2 CALLDATALOAD PUSH2 0x352 DUP5 DUP3 PUSH1 0x20 DUP7 ADD PUSH2 0x2EB JUMP JUMPDEST SWAP2 POP POP SWAP3 SWAP2 POP POP JUMP JUMPDEST PUSH1 0x0 PUSH1 0x20 DUP3 DUP5 SUB SLT ISZERO PUSH2 0x371 JUMPI PUSH2 0x370 PUSH2 0x20B JUMP JUMPDEST JUMPDEST PUSH1 0x0 DUP3 ADD CALLDATALOAD PUSH8 0xFFFFFFFFFFFFFFFF DUP2 GT ISZERO PUSH2 0x38F JUMPI PUSH2 0x38E PUSH2 0x210 JUMP JUMPDEST JUMPDEST PUSH2 0x39B DUP5 DUP3 DUP6 ADD PUSH2 0x32D JUMP JUMPDEST SWAP2 POP POP SWAP3 SWAP2 POP POP JUMP JUMPDEST PUSH1 0x0 DUP2 MLOAD SWAP1 POP SWAP2 SWAP1 POP JUMP JUMPDEST PUSH1 0x0 DUP3 DUP3 MSTORE PUSH1 0x20 DUP3 ADD SWAP1 POP SWAP3 SWAP2 POP POP JUMP JUMPDEST PUSH1 0x0 JUMPDEST DUP4 DUP2 LT ISZERO PUSH2 0x3DE JUMPI DUP1 DUP3 ADD MLOAD DUP2 DUP5 ADD MSTORE PUSH1 0x20 DUP2 ADD SWAP1 POP PUSH2 0x3C3 JUMP JUMPDEST DUP4 DUP2 GT ISZERO PUSH2 0x3ED JUMPI PUSH1 0x0 DUP5 DUP5 ADD MSTORE JUMPDEST POP POP POP POP JUMP JUMPDEST PUSH1 0x0 PUSH2 0x3FE DUP3 PUSH2 0x3A4 JUMP JUMPDEST PUSH2 0x408 DUP2 DUP6 PUSH2 0x3AF JUMP JUMPDEST SWAP4 POP PUSH2 0x418 DUP2 DUP6 PUSH1 0x20 DUP7 ADD PUSH2 0x3C0 JUMP JUMPDEST PUSH2 0x421 DUP2 PUSH2 0x21F JUMP JUMPDEST DUP5 ADD SWAP2 POP POP SWAP3 SWAP2 POP POP JUMP JUMPDEST PUSH1 0x0 PUSH1 0x20 DUP3 ADD SWAP1 POP DUP2 DUP2 SUB PUSH1 0x0 DUP4 ADD MSTORE PUSH2 0x446 DUP2 DUP5 PUSH2 0x3F3 JUMP JUMPDEST SWAP1 POP SWAP3 SWAP2 POP POP JUMP JUMPDEST PUSH1 0x0 PUSH20 0xFFFFFFFFFFFFFFFFFFFFFFFFFFFFFFFFFFFFFFFF DUP3 AND SWAP1 POP SWAP2 SWAP1 POP JUMP JUMPDEST PUSH1 0x0 PUSH2 0x479 DUP3 PUSH2 0x44E JUMP JUMPDEST SWAP1 POP SWAP2 SWAP1 POP JUMP JUMPDEST PUSH2 0x489 DUP2 PUSH2 0x46E JUMP JUMPDEST DUP3 MSTORE POP POP JUMP JUMPDEST PUSH1 0x0 PUSH1 0x20 DUP3 ADD SWAP1 POP PUSH2 0x4A4 PUSH1 0x0 DUP4 ADD DUP5 PUSH2 0x480 JUMP JUMPDEST SWAP3 SWAP2 POP POP JUMP JUMPDEST PUSH1 0x0 DUP2 SWAP1 POP SWAP2 SWAP1 POP JUMP JUMPDEST PUSH2 0x4BD DUP2 PUSH2 0x4AA JUMP JUMPDEST DUP3 MSTORE POP POP JUMP JUMPDEST PUSH1 0x0 PUSH1 0x20 DUP3 ADD SWAP1 POP PUSH2 0x4D8 PUSH1 0x0 DUP4 ADD DUP5 PUSH2 0x4B4 JUMP JUMPDEST SWAP3 SWAP2 POP POP JUMP JUMPDEST PUSH32 0x4E487B7100000000000000000000000000000000000000000000000000000000 PUSH1 0x0 MSTORE PUSH1 0x11 PUSH1 0x4 MSTORE PUSH1 0x24 PUSH1 0x0 REVERT JUMPDEST PUSH1 0x0 PUSH2 0x518 DUP3 PUSH2 0x4AA JUMP JUMPDEST SWAP2 POP PUSH32 0xFFFFFFFFFFFFFFFFFFFFFFFFFFFFFFFFFFFFFFFFFFFFFFFFFFFFFFFFFFFFFFFF DUP3 SUB PUSH2 0x54A JUMPI PUSH2 0x549 PUSH2 0x4DE JUMP JUMPDEST JUMPDEST PUSH1 0x1 DUP3 ADD SWAP1 POP SWAP2 SWAP1 POP JUMP JUMPDEST PUSH32 0x4E487B7100000000000000000000000000000000000000000000000000000000 PUSH1 0x0 MSTORE PUSH1 0x22 PUSH1 0x4 MSTORE PUSH1 0x24 PUSH1 0x0 REVERT JUMPDEST PUSH1 0x0 PUSH1 0x2 DUP3 DIV SWAP1 POP PUSH1 0x1 DUP3 AND DUP1 PUSH2 0x59C JUMPI PUSH1 0x7F DUP3 AND SWAP2 POP JUMPDEST PUSH1 0x20 DUP3 LT DUP2 SUB PUSH2 0x5AF JUMPI PUSH2 0x5AE PUSH2 0x555 JUMP JUMPDEST JUMPDEST POP SWAP2 SWAP1 POP JUMP JUMPDEST PUSH1 0x0 DUP2 SWAP1 POP DUP2 PUSH1 0x0 MSTORE PUSH1 0x20 PUSH1 0x0 KECCAK256 SWAP1 POP SWAP2 SWAP1 POP JUMP JUMPDEST PUSH1 0x0 PUSH1 0x20 PUSH1 0x1F DUP4 ADD DIV SWAP1 POP SWAP2 SWAP1 POP JUMP JUMPDEST PUSH1 0x0 DUP3 DUP3 SHL SWAP1 POP SWAP3 SWAP2 POP POP JUMP JUMPDEST PUSH1 0x0 PUSH1 0x8 DUP4 MUL PUSH2 0x617 PUSH32 0xFFFFFFFFFFFFFFFFFFFFFFFFFFFFFFFFFFFFFFFFFFFFFFFFFFFFFFFFFFFFFFFF DUP3 PUSH2 0x5DA JUMP JUMPDEST PUSH2 0x621 DUP7 DUP4 PUSH2 0x5DA JUMP JUMPDEST SWAP6 POP DUP1 NOT DUP5 AND SWAP4 POP DUP1 DUP7 AND DUP5 OR SWAP3 POP POP POP SWAP4 SWAP3 POP POP POP JUMP JUMPDEST PUSH1 0x0 DUP2 SWAP1 POP SWAP2 SWAP1 POP JUMP JUMPDEST PUSH1 0x0 PUSH2 0x65E PUSH2 0x659 PUSH2 0x654 DUP5 PUSH2 0x4AA JUMP JUMPDEST PUSH2 0x639 JUMP JUMPDEST PUSH2 0x4AA JUMP JUMPDEST SWAP1 POP SWAP2 SWAP1 POP JUMP JUMPDEST PUSH1 0x0 DUP2 SWAP1 POP SWAP2 SWAP1 POP JUMP JUMPDEST PUSH2 0x678 DUP4 PUSH2 0x643 JUMP JUMPDEST PUSH2 0x68C PUSH2 0x684 DUP3 PUSH2 0x665 JUMP JUMPDEST DUP5 DUP5 SLOAD PUSH2 0x5E7 JUMP JUMPDEST DUP3 SSTORE POP POP POP POP JUMP JUMPDEST PUSH1 0x0 SWAP1 JUMP JUMPDEST PUSH2 0x6A1 PUSH2 0x694 JUMP JUMPDEST PUSH2 0x6AC DUP2 DUP5 DUP5 PUSH2 0x66F JUMP JUMPDEST POP POP POP JUMP JUMPDEST JUMPDEST DUP2 DUP2 LT ISZERO PUSH2 0x6D0 JUMPI PUSH2 0x6C5 PUSH1 0x0 DUP3 PUSH2 0x699 JUMP JUMPDEST PUSH1 0x1 DUP2 ADD SWAP1 POP PUSH2 0x6B2 JUMP JUMPDEST POP POP JUMP JUMPDEST PUSH1 0x1F DUP3 GT ISZERO PUSH2 0x715 JUMPI PUSH2 0x6E6 DUP2 PUSH2 0x5B5 JUMP JUMPDEST PUSH2 0x6EF DUP5 PUSH2 0x5CA JUMP JUMPDEST DUP2 ADD PUSH1 0x20 DUP6 LT ISZERO PUSH2 0x6FE JUMPI DUP2 SWAP1 POP JUMPDEST PUSH2 0x712 PUSH2 0x70A DUP6 PUSH2 0x5CA JUMP JUMPDEST DUP4 ADD DUP3 PUSH2 0x6B1 JUMP JUMPDEST POP POP JUMPDEST POP POP POP JUMP JUMPDEST PUSH1 0x0 DUP3 DUP3 SHR SWAP1 POP SWAP3 SWAP2 POP POP JUMP JUMPDEST PUSH1 0x0 PUSH2 0x738 PUSH1 0x0 NOT DUP5 PUSH1 0x8 MUL PUSH2 0x71A JUMP JUMPDEST NOT DUP1 DUP4 AND SWAP2 POP POP SWAP3 SWAP2 POP POP JUMP JUMPDEST PUSH1 0x0 PUSH2 0x751 DUP4 DUP4 PUSH2 0x727 JUMP JUMPDEST SWAP2 POP DUP3 PUSH1 0x2 MUL DUP3 OR SWAP1 POP SWAP3 SWAP2 POP POP JUMP JUMPDEST PUSH2 0x76A DUP3 PUSH2 0x3A4 JUMP JUMPDEST PUSH8 0xFFFFFFFFFFFFFFFF DUP2 GT ISZERO PUSH2 0x783 JUMPI PUSH2 0x782 PUSH2 0x230 JUMP JUMPDEST JUMPDEST PUSH2 0x78D DUP3 SLOAD PUSH2 0x584 JUMP JUMPDEST PUSH2 0x798 DUP3 DUP3 DUP6 PUSH2 0x6D4 JUMP JUMPDEST PUSH1 0x0 PUSH1 0x20 SWAP1 POP PUSH1 0x1F DUP4 GT PUSH1 0x1 DUP2 EQ PUSH2 0x7CB JUMPI PUSH1 0x0 DUP5 ISZERO PUSH2 0x7B9 JUMPI DUP3 DUP8 ADD MLOAD SWAP1 POP JUMPDEST PUSH2 0x7C3 DUP6 DUP3 PUSH2 0x745 JUMP JUMPDEST DUP7 SSTORE POP PUSH2 0x82B JUMP JUMPDEST PUSH1 0x1F NOT DUP5 AND PUSH2 0x7D9 DUP7 PUSH2 0x5B5 JUMP JUMPDEST PUSH1 0x0 JUMPDEST DUP3 DUP2 LT ISZERO PUSH2 0x801 JUMPI DUP5 DUP10 ADD MLOAD DUP3 SSTORE PUSH1 0x1 DUP3 ADD SWAP2 POP PUSH1 0x20 DUP6 ADD SWAP5 POP PUSH1 0x20 DUP2 ADD SWAP1 POP PUSH2 0x7DC JUMP JUMPDEST DUP7 DUP4 LT ISZERO PUSH2 0x81E JUMPI DUP5 DUP10 ADD MLOAD PUSH2 0x81A PUSH1 0x1F DUP10 AND DUP3 PUSH2 0x727 JUMP JUMPDEST DUP4 SSTORE POP JUMPDEST PUSH1 0x1 PUSH1 0x2 DUP9 MUL ADD DUP9 SSTORE POP POP POP JUMPDEST POP POP POP POP POP POP JUMP INVALID LOG2 PUSH5 0x6970667358 0x22 SLT KECCAK256 0xE6 SWAP6 DUP11 0x26 0x2B 0x27 0x25 0xF6 0xB5 0xE0 PUSH4 0xB375B624 SUB 0x4C EXTCODEHASH 0xF9 0xEB PUSH3 0x8D50F3 0x26 PUSH30 0x29A4CA538F7364736F6C634300080F003300000000000000000000000000 "
				},
				"gasEstimates": {
					"creation": {
						"codeDepositCost": "430600",
						"executionCost": "24734",
						"totalCost": "455334"
					},
					"external": {
						"changeCounter()": "2473",
						"myString()": "infinite",
						"owner()": "2536",
						"updateMyString(string)": "infinite"
					}
				},
				"methodIdentifiers": {
					"changeCounter()": "aaf4389a",
					"myString()": "492bfa18",
					"owner()": "8da5cb5b",
					"updateMyString(string)": "1d51057c"
				}
			},
			"storageLayout": {
				"storage": [
					{
						"astId": 3,
						"contract": "contracts/TheBlockChainMessenger.sol:TheBlockChainMessenger",
						"label": "changeCounter",
						"offset": 0,
						"slot": "0",
						"type": "t_uint256"
					},
					{
						"astId": 5,
						"contract": "contracts/TheBlockChainMessenger.sol:TheBlockChainMessenger",
						"label": "owner",
						"offset": 0,
						"slot": "1",
						"type": "t_address"
					},
					{
						"astId": 7,
						"contract": "contracts/TheBlockChainMessenger.sol:TheBlockChainMessenger",
						"label": "myString",
						"offset": 0,
						"slot": "2",
						"type": "t_string_storage"
					}
				],
				"types": {
					"t_address": {
						"encoding": "inplace",
						"label": "address",
						"numberOfBytes": "20"
					},
					"t_string_storage": {
						"encoding": "bytes",
						"label": "string",
						"numberOfBytes": "32"
					},
					"t_uint256": {
						"encoding": "inplace",
						"label": "uint256",
						"numberOfBytes": "32"
					}
				}
			},
			"userdoc": {
				"kind": "user",
				"methods": {},
				"version": 1
			}
		}
	}
}